:020000040800F2
:10000000000002208D2D00082D2B0008352B000844
:100010003D2B0008452B00084D2B00080000000078
:10002000000000000000000000000000552B000848
:10003000632B000800000000712B00087F2B0008D4
:10004000DD2D0008DD2D0008DD2D0008DD2D000868
:10005000DD2D0008DD2D0008DD2D0008DD2D000858
:10006000DD2D0008DD2D0008DD2D0008DD2D000848
:10007000DD2D0008DD2D0008DD2D0008DD2D000838
:10008000DD2D0008DD2D0008DD2D0008DD2D000828
:10009000DD2D0008DD2D0008DD2D0008DD2D000818
:1000A000DD2D0008DD2D0008DD2D0008DD2D000808
:1000B000DD2D0008DD2D0008DD2D0008DD2D0008F8
:1000C000DD2D0008DD2D0008DD2D0008DD2D0008E8
:1000D000DD2D0008DD2D0008DD2D0008DD2D0008D8
:1000E000DD2D0008DD2D0008DD2D0008DD2D0008C8
:1000F000DD2D0008DD2D0008DD2D0008DD2D0008B8
:10010000DD2D0008DD2D0008DD2D0008DD2D0008A7
:10011000DD2D0008DD2D0008DD2D0008DD2D000897
:10012000DD2D0008DD2D0008DD2D0008DD2D000887
:10013000DD2D00080000000000000000DD2D00089B
:10014000DD2D0008DD2D0008DD2D0008DD2D000867
:10015000DD2D0008DD2D0008DD2D0008DD2D000857
:10016000DD2D0008DD2D0008DD2D0008DD2D000847
:10017000DD2D0008DD2D0008DD2D00080000000049
:1001800000000000DD2D000800000000000000005D
:10019000DD2D00080000000000000000DD2D00083B
:1001A000000000000000000000000000DD2D00083D
:1001B000DD2D0008DD2D0008DD2D0008DD2D0008F7
:0401C000DD2D000829
:1001C40010B5054C237833B9044B13B10448AFF38D
:1001D40000800123237010BD0C00002000000000EB
:1001E400382E000808B5034B1BB103490348AFF38D
:1001F400008008BD0000000010000020382E000818
:1002040053B94AB9002908BF00281CBF4FF0FF3179
:100214004FF0FF3000F088B9ADF1080C6DE904CE61
:1002240000F006F8DDF804E0DDE9022304B07047CD
:100234002DE9F047089D0F4604468C46002B48D113
:100244008A42164661D9B2FA82F34BB1C3F1200255
:1002540001FA03FC20FA02F29E4042EA0C0C9C4094
:100264004FEA164EB7B2BCFBFEF1220C0EFB11CCCA
:1002740042EA0C4201FB07F0904209D9B21801F19D
:10028400FF3C80F0EE80904240F2EB800239324431
:10029400121AA4B2B2FBFEF00EFB102244EA02448E
:1002A40000FB07F7A74209D9341900F1FF3280F0A7
:1002B400DA80A74240F2D7803444023840EA014051
:1002C400E41B00211DB1DC400023C5E90043BDE867
:1002D400F0878B4206D90DB1C5E90001002108461B
:1002E400BDE8F087B3FA83F1002948D1BB4202D3B9
:1002F400824200F20781841A67EB030201209446CC
:10030400002DE4D0C5E9004CE1E7002A00F092801A
:10031400B2FA82F3002B40F0A8808A1A4FEA164EF4
:100324001FFA86FC0121200CB2FBFEF70EFB1722FC
:1003340040EA02420CFB07F0904207D9B21807F1D9
:10034400FF3802D2904200F2E2804746121AA4B269
:10035400B2FBFEF00EFB102244EA02440CFB00FC4C
:10036400A44507D9341900F1FF3202D2A44500F2A2
:10037400CB801046A4EB0C0440EA0740A2E7C1F18D
:1003840020068B4022FA06FC4CEA030C07FA01F41F
:1003940020FA06F3F7404FEA1C49234300FA01F818
:1003A4001FFA8CFEB7FBF9F01C0C09FB107744EA2A
:1003B400074400FB0EF7A74202FA01F20AD91CEB2C
:1003C400040400F1FF3A80F09B80A74240F2988039
:1003D40002386444E41B9FB2B4FBF9F309FB1344F1
:1003E40047EA044403FB0EFEA64509D91CEB0404AA
:1003F40003F1FF3780F08280A6457FD9023B644435
:1004040043EA0040A4EB0E04A0FB02E7BC4273469F
:10041400B94663D360D05DB1B8EB030264EB090461
:1004240004FA06F622FA01F31E43CC40C5E900643F
:1004340000214CE76208480842EAC1710B0C43EA08
:1004440000438AB242EA0342B3FBF6F1E407B4463E
:100454003746B6461F23B0FBF6F0D21B41EA0041F3
:1004640061E7614614E7104628E7C3F1200120FA4A
:1004740001F29E4027FA01F19F403A434FEA164E9B
:100484001FFA86FCB1FBFEF70EFB1710110C41EAB4
:10049400004107FB0CF8884504FA03F43AD97118B3
:1004A40007F1FF3001D288451FD8A1EB0801B1FB49
:1004B400FEF808FB0CF70EFB181192B242EA014257
:1004C400BA422FD2B21808F1FF31C6D2BA42C4D20E
:1004D400A8F102013244C0E7F0459CD2BEEB02030E
:1004E40067EB0C070138B94695E7A6EB08084144C9
:1004F400B81EB1FBFEF808FB0CF7DCE73B467FE7D0
:10050400504667E70846FBE63444023832E7023FC8
:1005140032441BE7A1EB08013846B1FBFEF808FBA7
:100524000CF7C8E7414698E7704700BF80B400AFB6
:10053400064BD3F88830054A43F47003C2F8883078
:1005440000BFBD465DF8047B704700BF00ED00E0CE
:1005540080B582B000AF78607B68002B01D10123A5
:1005640041E07B6893F83D30DBB2002B06D17B6819
:10057400002283F83C20786802F02EFB7B6802227C
:1005840083F83D207B681A687B680433194610465B
:1005940000F0B8F97B68012283F846207B680122C9
:1005A40083F83E207B68012283F83F207B68012288
:1005B40083F840207B68012283F841207B68012274
:1005C40083F842207B68012283F843207B68012260
:1005D40083F844207B68012283F845207B6801224C
:1005E40083F83D20002318460837BD4680BD00002F
:1005F40080B584B000AF786039603B68002B09D1C6
:100604007B6893F83E30DBB2012B14BF0123002337
:10061400DBB222E03B68042B09D17B6893F83F30BE
:10062400DBB2012B14BF01230023DBB215E03B68CE
:10063400082B09D17B6893F84030DBB2012B14BF3F
:1006440001230023DBB208E07B6893F84130DBB27E
:10065400012B14BF01230023DBB2002B01D00123A3
:100664007CE03B68002B04D17B68022283F83E20A7
:1006740013E03B68042B04D17B68022283F83F20FB
:100684000BE03B68082B04D17B68022283F84020EE
:1006940003E07B68022283F841207B681B68012207
:1006A4003968184600F084FB7B681B682D4A934226
:1006B40004D07B681B682C4A934201D1012300E0DB
:1006C4000023002B07D07B681B685A6C7B681B686F
:1006D40042F400425A647B681B68224A934222D047
:1006E4007B681B68B3F1804F1DD07B681B681F4A71
:1006F400934218D07B681B681D4A934213D07B68D1
:100704001B681C4A93420ED07B681B68164A9342AE
:1007140009D07B681B68184A934204D07B681B6825
:10072400164A934211D17B681B689B6803F0070348
:10073400FB60FB68062B10D07B681B681A687B681B
:100744001B6842F001021A6007E07B681B681A68A4
:100754007B681B6842F001021A60002318461037B8
:10076400BD4680BD0000014000040140000400407B
:1007740000080040000C0040004001400018004008
:1007840080B586B000AFF860B9607A600023FB756D
:10079400FB6893F83C30012B01D10223AEE0FB68E7
:1007A400012283F83C207B680C2B00F29F8001A27D
:1007B40052F823F0ED070008F1080008F1080008DA
:1007C400F10800082D080008F1080008F1080008E5
:1007D400F10800086F080008F1080008F108000893
:1007E400F1080008AF080008FB681B68B9681846E0
:1007F40000F02EF9FB681B689A69FB681B6842F0DD
:1008040008029A61FB681B689A69FB681B6822F0FE
:1008140004029A61FB681B689969BB681A69FB68E2
:100824001B680A439A6164E0FB681B68B968184650
:1008340000F07EF9FB681B689A69FB681B6842F448
:1008440000629A61FB681B689A69FB681B6822F462
:1008540080629A61FB681B689969BB681B691A020C
:10086400FB681B680A439A6143E0FB681B68B9682C
:10087400184600F0D3F9FB681B68DA69FB681B684B
:1008840042F00802DA61FB681B68DA69FB681B68DE
:1008940022F00402DA61FB681B68D969BB681A6933
:1008A400FB681B680A43DA6123E0FB681B68B968CC
:1008B400184600F027FAFB681B68DA69FB681B68B6
:1008C40042F40062DA61FB681B68DA69FB681B6842
:1008D40022F48062DA61FB681B68D969BB681B6912
:1008E4001A02FB681B680A43DA6102E00123FB7504
:1008F40000BFFB68002283F83C20FB7D18461837B4
:10090400BD4680BD80B485B000AF786039607B6837
:100914001B68FB607B68434A934213D07B68B3F146
:10092400804F0FD07B68404A93420BD07B683F4A8C
:10093400934207D07B683E4A934203D07B683D4A8A
:10094400934208D1FB6823F07003FB603B685B684B
:10095400FA681343FB607B68324A93422BD07B686E
:10096400B3F1804F27D07B682F4A934223D07B6812
:100974002E4A93421FD07B682D4A93421BD07B683A
:100984002C4A934217D07B682B4A934213D07B683E
:100994002A4A93420FD07B68294A93420BD07B6842
:1009A400284A934207D07B68274A934203D07B6846
:1009B400264A934208D1FB6823F44073FB603B68EA
:1009C400DB68FA681343FB60FB6823F080023B6832
:1009D4005B691343FB603B689A687B68DA623B6837
:1009E4001A687B689A627B680E4A934203D07B68DC
:1009F400104A934203D13B681A697B681A637B6887
:100A04001B6843F004027B681A607B6801225A6108
:100A14007B68FA681A6000BF1437BD465DF8047B32
:100A2400704700BF0000014000040040000800407F
:100A3400000C00400004014000400140004401401B
:100A44000048014000180040001C00400020004005
:100A540080B487B000AF786039607B681B6A7B61C3
:100A64007B681B6A23F001027B681A627B685B68FF
:100A74003B617B689B69FB60FB6823F07003FB6050
:100A8400FB6823F00303FB603B681B68FA681343AD
:100A9400FB607B6923F002037B613B689B687A6996
:100AA40013437B617B68204A934203D07B681F4ACF
:100AB40093420CD17B6923F008037B613B68DB68BC
:100AC4007A6913437B617B6923F004037B617B6850
:100AD400154A934203D07B68144A934211D13B696F
:100AE40023F480733B613B6923F400733B613B68EF
:100AF4005B693A6913433B613B689B693A691343F9
:100B04003B617B683A695A607B68FA689A613B6822
:100B14005A687B685A637B687A691A6200BF1C371B
:100B2400BD465DF8047B70470000014000040140AD
:100B340080B487B000AF786039607B681B6A7B61E2
:100B44007B681B6A23F010027B681A627B685B680F
:100B54003B617B689B69FB60FB6823F4E043FB60BB
:100B6400FB6823F44073FB603B681B681B02FA6854
:100B74001343FB607B6923F020037B613B689B6824
:100B84001B017A6913437B617B68224A934203D039
:100B94007B68214A93420DD17B6923F080037B61FA
:100BA4003B68DB681B017A6913437B617B6923F033
:100BB40040037B617B68174A934203D07B68164AE3
:100BC400934213D13B6923F480633B613B6923F473
:100BD40000633B613B685B699B003A6913433B617B
:100BE4003B689B699B003A6913433B617B683A69A4
:100BF4005A607B68FA689A613B685A687B689A63B2
:100C04007B687A691A6200BF1C37BD465DF8047BB5
:100C1400704700BF000001400004014080B487B069
:100C240000AF786039607B681B6A7B617B681B6AF4
:100C340023F480727B681A627B685B683B617B6823
:100C4400DB69FB60FB6823F07003FB60FB6823F047
:100C54000303FB603B681B68FA681343FB607B6912
:100C640023F400737B613B689B681B027A6913431E
:100C74007B617B68214A934203D07B68204A93427C
:100C84000DD17B6923F400637B613B68DB681B0245
:100C94007A6913437B617B6923F480637B617B689E
:100CA400164A934203D07B68154A934213D13B6999
:100CB40023F480533B613B6923F400533B613B685D
:100CC4005B691B013A6913433B613B689B691B01E8
:100CD4003A6913433B617B683A695A607B68FA68F6
:100CE400DA613B685A687B68DA637B687A691A62FE
:100CF40000BF1C37BD465DF8047B7047000001400F
:100D04000004014080B487B000AF786039607B682C
:100D14001B6A3B617B681B6A23F480527B681A62FE
:100D24007B685B687B617B68DB69FB60FB6823F441
:100D3400E043FB60FB6823F44073FB603B681B6883
:100D44001B02FA681343FB603B6923F400533B61C5
:100D54003B689B681B033A6913433B617B68124AF7
:100D6400934203D07B68114A934209D17B6923F4EF
:100D740080437B613B685B699B017A6913437B61B8
:100D84007B687A695A607B68FA68DA613B685A68FA
:100D94007B681A647B683A691A6200BF1C37BD46D7
:100DA4005DF8047B704700BF00000140000401406F
:100DB40080B487B000AFF860B9607A60BB6803F0B4
:100DC4001F03012202FA03F37B61FB681A6A7B6941
:100DD400DB431A40FB681A62FB681A6ABB6803F0BB
:100DE4001F03796801FA03F31A43FB681A6200BF10
:100DF4001C37BD465DF8047B7047000080B485B0A5
:100E040000AF786039607B6893F83C30012B01D1E6
:100E140002235AE07B68012283F83C207B6802228B
:100E240083F83D207B681B685B68FB607B681B68FC
:100E34009B68BB60FB6823F07003FB603B681B6826
:100E4400FA681343FB607B681B68FA685A607B6826
:100E54001B68214A934222D07B681B68B3F1804F00
:100E64001DD07B681B681D4A934218D07B681B68A1
:100E74001B4A934213D07B681B681A4A93420ED0D4
:100E84007B681B68184A934209D07B681B68174A21
:100E9400934204D07B681B68154A93420CD1BB680B
:100EA40023F08003BB603B685B68BA681343BB6094
:100EB4007B681B68BA689A607B68012283F83D20CE
:100EC4007B68002283F83C20002318461437BD4673
:100ED4005DF8047B704700BF00000140000400403F
:100EE40000080040000C00400004014000400140A4
:100EF4000018004080B584B000AF786039607B682A
:100F0400002B01D10123CCE0684B1B6803F00F03D5
:100F14003A689A420CD9654B3A68D2B21A70634B5C
:100F24001B6803F00F033A689A4201D00123B8E02A
:100F34007B681B6803F00203002B20D07B681B68CE
:100F440003F00403002B05D0594B9B68584A43F423
:100F5400E05393607B681B6803F00803002B05D003
:100F6400534B9B68524A43F460439360504B9B68D5
:100F740023F0F0027B689B684D4913438B607B68C8
:100F84001B6803F00103002B44D07B685B68012BD2
:100F940007D1474B1B6803F40033002B19D10123FD
:100FA4007FE07B685B68022B03D07B685B68032B64
:100FB40007D13F4B1B6803F00073002B09D10123B9
:100FC4006FE03B4B1B6803F00203002B01D10123AC
:100FD40067E0374B9B6823F003027B685B68344906
:100FE40013438B6001F0B8F8F8600AE001F0B4F83C
:100FF4000246FB68D31A41F28832934201D9032393
:101004004FE02B4B9B6803F00C027B685B689B00F2
:101014009A42EBD1254B1B6803F00F033A689A42BE
:101024000CD2224B3A68D2B21A70204B1B6803F0E0
:101034000F033A689A4201D0012332E07B681B68AF
:1010440003F00403002B08D0194B9B6823F4E052EF
:101054007B68DB68164913438B607B681B6803F06D
:101064000803002B09D0124B9B6823F460427B6871
:101074001B69DB000E4913438B6000F055F80246F0
:101084000B4B9B681B0903F00F030A49CB5C22FA44
:1010940003F3094A1360094B1B68184601F018F85A
:1010A400002318461037BD4680BD00BF003C0240F7
:1010B40000380240502E00080000002004000020E8
:1010C40080B400AF034B1B681846BD465DF8047B33
:1010D400704700BF0000002080B500AFFFF7F0FFAD
:1010E4000246054B9B689B0A03F007030349CB5C4C
:1010F40022FA03F3184680BD00380240602E00082F
:1011040080B500AFFFF7DCFF0246054B9B685B0B25
:1011140003F007030349CB5C22FA03F3184680BDAE
:1011240000380240602E00082DE9B04FAEB000AF89
:101134000023C7F8AC300023C7F8B4300023C7F845
:10114400A8300023C7F8A4300023C7F8B030CB4B35
:101154009B6803F00C030C2B00F2068201A252F8E8
:1011640023F000BF9D1100086D1500086D150008DF
:101174006D150008A51100086D1500086D1500080F
:101184006D150008AD1100086D1500086D150008F7
:101194006D1500089D130008B94BC7F8B030E7E19E
:1011A400B84BC7F8B030E3E1B44B5B6803F03F03DE
:1011B400C7F8AC30B14B5B6803F48003002B71D0EB
:1011C400AE4B5B689B090022C7F89830C7F89C2097
:1011D400D7F89830C3F30803C7F890300023C7F852
:1011E4009430D7E9244522462B464FF000004FF0B7
:1011F4000001590141EAD261500102460B462146E1
:10120400511A3964294663EB01037B644FF00002F1
:101214004FF00003D7E9108949468B01414643EA60
:10122400916341468A014146511AB963494663EBC9
:101234000103FB634FF000024FF00003D7E90E896E
:101244004946CB00414643EA51734146CA00104621
:101254001946034622469B183B632B460A4642EB3B
:1012640003037B634FF000024FF00003D7E90C4502
:1012740029464B02214643EAD15321464A021046ED
:101284001946D7F8AC300022C7F88830C7F88C204C
:10129400D7E92223FEF7B4FF02460B461346C7F8EC
:1012A400B43067E0754B5B689B090022C7F8803057
:1012B400C7F88420D7F88030C3F30803BB67002342
:1012C400FB67D7E91E4522462B464FF000004FF03E
:1012D4000001590141EAD261500102460B46214600
:1012E400511AB962294663EB0103FB624FF0000215
:1012F4004FF00003D7E90A8949468B01414643EA86
:10130400916341468A014146B2EB010A494663EBC7
:10131400010B4FF000024FF000034FEACB0343EA06
:101324005A734FEACA0292469B4623461AEB0303BA
:101334003B622B464BEB03037B624FF000024FF002
:101344000003D7E9084529468B02214643EA915315
:1013540021468A0210461946D7F8AC3000223B6772
:101364007A67D7E91C23FEF74BFF02460B46134668
:10137400C7F8B430414B5B681B0C03F00303013323
:101384005B00C7F8A830D7F8B420D7F8A830B2FB70
:10139400F3F3C7F8B030EBE0384B5B6803F03F037E
:1013A400C7F8AC30354B5B6803F48003002B6BD07B
:1013B400324B5B689B090022BB66FA66BB6EC3F3C3
:1013C40008033B6600237B66D7E9184522462B4673
:1013D4004FF000004FF00001590141EAD261500181
:1013E40002460B462146511AB961294663EB0103B3
:1013F400FB614FF000024FF00003D7E906AB5946FA
:101404008B01514643EA916351468A015146B2EB3E
:101414000108594663EB01094FF000024FF0000345
:101424004FEAC90343EA58734FEAC8029046994603
:10143400234618EB03033B612B4649EB03037B6113
:101444004FF000024FF00003D7E9044529464B0250
:10145400214643EAD15321464A0210461946D7F899
:10146400AC300022BB65FA65D7E91623FEF7C8FE47
:1014740002460B461346C7F8B43065E00038024014
:101484000024F40000127A003D4B5B689B090022A3
:1014940018461146C0F308033B6500237B65D7E972
:1014A400148942464B464FF000004FF000015901A9
:1014B40041EAD261500102460B464146511AB960D5
:1014C400494663EB0103FB604FF000024FF0000359
:1014D400D7E902AB59468B01514643EA9163514621
:1014E4008A015146541A594663EB01054FF0000234
:1014F4004FF00003EB0043EA5473E20014461D4628
:101504004346E3183B604B4645EB03037B604FF0D7
:1015140000024FF00003D7E9004529468B0221461B
:1015240043EA915321468A0210461946D7F8AC3053
:101534000022BB64FA64D7E91223FEF761FE024677
:101544000B461346C7F8B4300D4B5B681B0F03F012
:101554000703C7F8A430D7F8B420D7F8A430B2FBF7
:10156400F3F3C7F8B03003E0064BC7F8B03000BF60
:10157400D7F8B0301846B837BD46BDE8B08F00BFC5
:10158400003802400024F40080B586B000AF7860D3
:101594007B68002B01D101238DE27B681B6803F07B
:1015A4000103002B00F08380944B9B6803F00C0331
:1015B400042B19D0914B9B6803F00C03082B06D124
:1015C4008E4B5B6803F48003B3F5800F0CD08B4B18
:1015D4009B6803F00C030C2B12D1884B5B6803F45B
:1015E4008003B3F5800F0BD1844B1B6803F40033E5
:1015F400002B5BD07B685B68002B57D101235AE238
:101604007B685B68B3F5803F06D17C4B1B687B4AE3
:1016140043F4803313601DE07B685B68B3F5A02F4F
:101624000CD1764B1B68754A43F480231360734BCB
:101634001B68724A43F4803313600BE06F4B1B68E2
:101644006E4A23F4803313606C4B1B686B4A23F49B
:10165400802313607B685B68002B13D000F07CFD53
:10166400386108E000F078FD02463B69D31A642B28
:1016740001D903231FE2614B1B6803F40033002BE1
:10168400F0D014E000F068FD386108E000F064FD7B
:1016940002463B69D31A642B01D903230BE2574B4F
:1016A4001B6803F40033002BF0D100E000BF7B681B
:1016B4001B6803F00203002B6FD0504B9B6803F0B0
:1016C4000C03002B17D04D4B9B6803F00C03082B25
:1016D40005D14A4B5B6803F48003002B0BD0474BC6
:1016E4009B6803F00C030C2B1CD1444B5B6803F484
:1016F4008003002B16D1414B1B6803F00203002B1F
:1017040005D07B68DB68012B01D00123D3E13B4B7F
:101714001B6823F0F8027B681B69DB00374913431D
:101724000B603AE07B68DB68002B20D0344B01224D
:101734001A6000F011FD386108E000F00DFD02466A
:101744003B69D31A022B01D90323B4E12B4B1B6849
:1017540003F00203002BF0D0284B1B6823F0F8029F
:101764007B681B69DB00254913430B6015E0244BA0
:1017740000221A6000F0F0FC386108E000F0ECFC94
:1017840002463B69D31A022B01D9032393E11B4B75
:101794001B6803F00203002BF0D17B681B6803F085
:1017A4000803002B36D07B685B69002B16D0154BE1
:1017B40001221A6000F0D0FC386108E000F0CCFC93
:1017C40002463B69D31A022B01D9032373E10B4B65
:1017D4005B6F03F00203002BF0D01BE0094B0022E7
:1017E4001A6000F0B9FC38610EE000F0B5FC024666
:1017F4003B69D31A022B07D903235CE1003802406A
:1018040000004742800E47428A4B5B6F03F002039D
:10181400002BEAD17B681B6803F00403002B00F063
:1018240097800023FB75834B1B6C03F08053002BC4
:101834000FD10023BB607F4B1B6C7E4A43F0805367
:1018440013647C4B1B6C03F08053BB60BB680123A7
:10185400FB75794B1B6803F48073002B18D1764B0E
:101864001B68754A43F48073136000F075FC38619B
:1018740008E000F071FC02463B69D31A022B01D93F
:10188400032318E16C4B1B6803F48073002BF0D026
:101894007B689B68012B06D1664B1B6F654A43F03E
:1018A400010313671CE07B689B68052B0CD1614B1B
:1018B4001B6F604A43F0040313675E4B1B6F5D4A62
:1018C40043F0010313670BE05A4B1B6F594A23F093
:1018D40001031367574B1B6F564A23F00403136726
:1018E4007B689B68002B15D000F036FC38610AE059
:1018F40000F032FC02463B69D31A41F2883293422B
:1019040001D90323D7E04B4B1B6F03F00203002BD9
:10191400EED014E000F020FC38610AE000F01CFC7A
:1019240002463B69D31A41F28832934201D9032318
:10193400C1E0404B1B6F03F00203002BEED1FB7D93
:10194400012B05D13B4B1B6C3A4A23F080531364A3
:101954007B689B69002B00F0AD80364B9B6803F0DD
:101964000C03082B60D07B689B69022B45D1334B59
:1019740000221A6000F0F0FB386108E000F0ECFB94
:1019840002463B69D31A022B01D9032393E0294B66
:101994001B6803F00073002BF0D17B68DA697B6865
:1019A4001B6A1A437B685B6A9B011A437B689B6AC8
:1019B4005B08013B1B041A437B68DB6A1B061A4362
:1019C4007B681B6B1B071B4913434B601B4B01229A
:1019D4001A6000F0C1FB386108E000F0BDFB02466C
:1019E4003B69D31A022B01D9032364E0114B1B6812
:1019F40003F00073002BF0D05CE0104B00221A605F
:101A040000F0AAFB386108E000F0A6FB02463B693F
:101A1400D31A022B01D903234DE0064B1B6803F0B4
:101A24000073002BF0D145E07B689B69012B07D143
:101A3400012340E00038024000700040600047424B
:101A44001F4B5B68FB607B689B69012B30D0FB6894
:101A540003F480027B68DB699A4229D1FB6803F0B6
:101A64003F027B681B6A9A4222D1FA6847F6C07328
:101A740013407A68526A9201934219D1FB6803F4C5
:101A840040327B689B6A5B08013B1B049A420FD17E
:101A9400FB6803F070627B68DB6A1B069A4207D11D
:101AA400FB6803F0E0427B681B6B1B079A4201D082
:101AB400012300E0002318461837BD4680BD00BF4F
:101AC4000038024080B489B000AF786039600023E8
:101AD4007B6100233B610023BB610023FB6165E163
:101AE4000122FB6902FA03F37B613B681B687A6994
:101AF40013403B613A697B699A4240F054813B68E8
:101B04005B6803F00303012B05D03B685B6803F0BB
:101B14000303022B30D17B689B68BB61FB695B00CC
:101B2400032202FA03F3DB43BA691340BB613B6847
:101B3400DA68FB695B0002FA03F3BA691343BB6119
:101B44007B68BA699A607B685B68BB610122FB6948
:101B540002FA03F3DB43BA691340BB613B685B6879
:101B64001B0903F00102FB6902FA03F3BA69134388
:101B7400BB617B68BA695A603B685B6803F0030326
:101B8400032B17D07B68DB68BB61FB695B00032216
:101B940002FA03F3DB43BA691340BB613B689A68FA
:101BA400FB695B0002FA03F3BA691343BB617B6808
:101BB400BA69DA603B685B6803F00303022B23D144
:101BC400FB69DA087B68083253F82230BB61FB6991
:101BD40003F007039B000F2202FA03F3DB43BA6905
:101BE4001340BB613B681A69FB6903F007039B0060
:101BF40002FA03F3BA691343BB61FB69DA087B6831
:101C04000832B96943F822107B681B68BB61FB6921
:101C14005B00032202FA03F3DB43BA691340BB619E
:101C24003B685B6803F00302FB695B0002FA03F3A1
:101C3400BA691343BB617B68BA691A603B685B6825
:101C440003F44033002B00F0AE800023FB605D4BB7
:101C54005B6C5C4A43F4804353645A4B5B6C03F4FF
:101C64008043FB60FB68584AFB699B08023352F8C7
:101C74002330BB61FB6903F003039B000F2202FACC
:101C840003F3DB43BA691340BB617B684F4A934259
:101C940025D07B684E4A93421FD07B684D4A9342BD
:101CA40019D07B684C4A934213D07B684B4A9342C9
:101CB4000DD07B684A4A934207D07B68494A9342D5
:101CC40001D106230CE007230AE0052308E00423DE
:101CD40006E0032304E0022302E0012300E00023E2
:101CE400FA6902F0030292009340BA691343BB619C
:101CF4003549FB699B080233BA6941F823203A4B02
:101D04009B68BB613B69DB43BA691340BB613B68B9
:101D14005B6803F48013002B03D0BA693B69134357
:101D2400BB61314ABB6993602F4BDB68BB613B6984
:101D3400DB43BA691340BB613B685B6803F400137F
:101D4400002B03D0BA693B691343BB61264ABB69C4
:101D5400D360254B5B68BB613B69DB43BA691340C5
:101D6400BB613B685B6803F40033002B03D0BA69A2
:101D74003B691343BB611C4ABB6953601A4B1B6824
:101D8400BB613B69DB43BA691340BB613B685B6879
:101D940003F48033002B03D0BA693B691343BB615E
:101DA400114ABB691360FB690133FB61FB690F2BAB
:101DB4007FF696AE00BF00BF2437BD465DF8047BB6
:101DC400704700BF00380240003801400000024064
:101DD4000004024000080240000C024000100240CF
:101DE4000014024000180240003C014080B483B05B
:101DF40000AF78600B467B8013467B707B78002BAA
:101E040003D07A887B689A6103E07B881A047B6834
:101E14009A6100BF0C37BD465DF8047B7047000033
:101E240080B582B000AF00237B6000233B60204B71
:101E34001B6C1F4A43F0805313641D4B1B6C03F04F
:101E440080533B603B681B4B01221A6000F084F90D
:101E5400786009E000F080F902467B68D31AB3F594
:101E64007A7F01D903231FE0134B5B6803F48033AB
:101E7400B3F5803FEED1114B01221A6000F06CF9EA
:101E8400786009E000F068F902467B68D31AB3F57C
:101E94007A7F01D9032307E0074B5B6803F400331F
:101EA400B3F5003FEED1002318460837BD4680BD88
:101EB4000038024040000E420070004044000E42D0
:101EC40080B485B000AF78607B6803F00703FB60E3
:101ED4000C4BDB68BB60BA684FF6FF031340BB6072
:101EE400FB681A02BB68134343F0BF6343F4003337
:101EF400BB60044ABB68D36000BF1437BD465DF8BD
:101F0400047B704700ED00E080B400AF044BDB6855
:101F14001B0A03F007031846BD465DF8047B7047AF
:101F240000ED00E080B483B000AF03463960FB717C
:101F340097F90730002B0ADB3B68DAB20C4997F9B2
:101F440007301201D2B20B4483F800230AE03B6845
:101F5400DAB20849FB7903F00F03043B1201D2B251
:101F64000B441A7600BF0C37BD465DF8047B7047FE
:101F740000E100E000ED00E080B489B000AFF8605B
:101F8400B9607A60FB6803F00703FB61FB69C3F186
:101F94000703042B28BF0423BB61FB690433062B0E
:101FA40002D9FB69033B00E000237B614FF0FF3261
:101FB400BB6902FA03F3DA43BB681A407B699A40AF
:101FC4004FF0FF317B6901FA03F3D9437B680B407F
:101FD400134318462437BD465DF8047B7047000060
:101FE40080B582B000AF78607B68013BB3F1807F3D
:101FF40001D301230FE00A4A7B68013B53600F21A0
:102004004FF0FF30FFF78EFF054B00229A60044B20
:1020140007221A60002318460837BD4680BD00BF5A
:1020240010E000E080B582B000AF78607868FFF718
:1020340047FF00BF0837BD4680BD80B586B000AFFE
:102044000346B9607A60FB7300237B61FFF75CFF92
:1020540078617A68B9687869FFF78EFF024697F964
:102064000F3011461846FFF75DFF00BF1837BD4615
:1020740080BD80B582B000AF78607868FFF7B0FFAC
:10208400034618460837BD4680BD000080B500AF42
:102094000E4B1B680D4A43F4007313600B4B1B6813
:1020A4000A4A43F480631360084B1B68074A43F4ED
:1020B400807313600320FFF7B5FF002000F008F8D9
:1020C40000F062FD0023184680BD00BF003C0240C2
:1020D40080B582B000AF7860124B1A68124B1B783F
:1020E40019464FF47A73B3FBF1F3B2FBF3F31846DA
:1020F400FFF7BFFF0346002B01D001230EE07B68EE
:102104000F2B0AD8002279684FF0FF30FFF795FFB4
:10211400064A7B681360002300E001231846083751
:10212400BD4680BD000000200800002004000020FF
:1021340080B400AF064B1B781A46064B1B68134449
:10214400044A136000BFBD465DF8047B704700BFBE
:10215400080000202800002080B400AF034B1B6857
:102164001846BD465DF8047B704700BF2800002078
:1021740080B584B000AF7860FFF7EEFFB8607B688D
:10218400FB60FB68B3F1FF3F05D00A4B1B781A468E
:10219400FB681344FB6000BFFFF7DEFF0246BB6829
:1021A400D31AFA689A42F7D800BF00BF1037BD4669
:1021B40080BD00BF0800002080B582B000AF786009
:1021C4007B68002B01D1012342E07B6893F8413006
:1021D400DBB2002B06D17B68002283F840207868AC
:1021E40000F056FD7B68242283F841207B681B683D
:1021F400DA687B681B6822F40052DA60786800F0C1
:102204002BF87B681B681A697B681B6822F4904270
:102214001A617B681B685A697B681B6822F02A0272
:102224005A617B681B68DA687B681B6842F4005259
:10223400DA607B6800225A647B68202283F841209C
:102244007B68202283F842207B6800225A630023A3
:1022540018460837BD4680BD2DE9B04FC0B000AF69
:10226400C7F8F400D7F8F4301B681B6923F4405016
:10227400D7F8F430D968D7F8F4301A6840EA010383
:102284001361D7F8F4309A68D7F8F4301B691A430D
:10229400D7F8F4305B691A43D7F8F430DB69134399
:1022A400C7F8F830D7F8F4301B68DB6823F416411C
:1022B40021F00C01D7F8F4301A68D7F8F8300B4342
:1022C400D360D7F8F4301B685B6923F44070D7F807
:1022D400F4309969D7F8F4301A6840EA010353617D
:1022E400D7F8F4301A688F4B9A4205D0D7F8F430F7
:1022F4001A688D4B9A4204D1FEF702FFC7F8FC001E
:1023040003E0FEF7E9FEC7F8FC00D7F8F430DB6918
:10231400B3F5004F40F00C81D7F8FC300022C7F829
:10232400E830C7F8EC20D7E93A4522462B46911805
:10233400B9655B41FB65D7E91623214612EB010819
:10234400294643EB01094FF000024FF000034FEA26
:10235400C90343EA58734FEAC80290469946234694
:1023640018EB0303C7F8E0302B4649EB0303C7F827
:10237400E430D7F8F4305B680022C7F8D830C7F8E7
:10238400DC20D7E936120B46DB183B65134642EBDB
:1023940003037B65D7E91423D7E93801FDF730FF40
:1023A40002460B46614BA3FB02235B091C01D7F8D1
:1023B400FC300022C7F8D030C7F8D420D7E93489DC
:1023C40042464B469118B9645B41FB64D7E912233A
:1023D400414612EB010A494643EB010B4FF0000260
:1023E4004FF000034FEACB0343EA5A734FEACA02A1
:1023F40092469B4643461AEB0303C7F8C8304B4644
:102404004BEB0303C7F8CC30D7F8F4305B680022F9
:10241400C7F8C030C7F8C420D7E930120B46DB1820
:102424003B64134642EB03037B64D7E91023D7E9EB
:102434003201FDF7E5FE02460B4611463B4BA3FB7A
:1024440001235B09642202FB03F3CB1ADB0003F1D3
:102454003202364BA3FB02235B095B0003F4F873DF
:102464001C44D7F8FC300022C7F8B830C7F8BC20A9
:10247400D7E92E8942464B469118B9635B41FB6309
:10248400D7E90E2341465118396349464B417B63D2
:102494004FF000024FF00003D7E90CAB5946CB00D4
:1024A400514643EA51735146CA0010461946034641
:1024B40042469B18C7F8B0304B460A4642EB03032A
:1024C400C7F8B430D7F8F4305B680022C7F8A830F6
:1024D400C7F8AC20D7E92A120B46DB18BB621346B7
:1024E40042EB0303FB62D7E90A23D7E92C01FDF78A
:1024F40087FE02460B460D4BA3FB02135B096421C6
:1025040001FB03F3D31ADB003233084AA2FB032393
:102514005B0903F00702D7F8F4301B6822449A6081
:1025240006E100BF00100140001401401F85EB517B
:10253400D7F8FC300022C7F8A030C7F8A420D7E9A8
:10254400288942464B46911839625B417B62D7E940
:10255400082341465418494643EB01054FF0000255
:102564004FF00003EB0043EA5473E20014461D46A7
:102574004346E318C7F898304B4645EB0303C7F8C6
:102584009C30D7F8F4305B680022C7F89030C7F865
:1025940094204FF000024FF00003D7E92445294668
:1025A4008B00214643EA917321468A00D7E926012C
:1025B400FDF726FE02460B46604BA3FB02235B0994
:1025C4001C01D7F8FC300022C7F88830C7F88C20EB
:1025D400D7E9228942464B469118B9615B41FB61B8
:1025E400D7E9062341465118396149464B417B617D
:1025F4004FF000024FF00003D7E904AB5946CB007B
:10260400514643EA51735146CA00104619460346DF
:1026140042469B18C7F880304B460A4642EB0303F8
:10262400C7F88430D7F8F4305B680022BB67FA67D8
:102634004FF000024FF00003D7E91E8949468B0092
:10264400414643EA917341468A00D7E92001FDF7E8
:10265400D7FD02460B461146384BA3FB01235B0909
:10266400642202FB03F3CB1A1B013233334AA2FB6D
:1026740003235B0903F0F0031C44D7F8FC30002269
:102684003B677A67D7E91C8942464B469118B96083
:102694005B41FB60D7E90223414651183960494642
:1026A4004B417B604FF000024FF00003D7E900ABD1
:1026B4005946CB00514643EA51735146CA0010466D
:1026C4001946034642469B18BB664B460A4642EBF4
:1026D4000303FB66D7F8F4305B6800223B667A6636
:1026E4004FF000024FF00003D7E9188949468B00E8
:1026F400414643EA917341468A00D7E91A01FDF73E
:102704007FFD02460B460D4BA3FB02135B096421BC
:1027140001FB03F3D31A1B013233084AA2FB032340
:102724005B0903F00F02D7F8F4301B6822449A6067
:1027340000BF07F58077BD46BDE8B08F1F85EB511C
:1027440080B582B000AFFFF7A1FC00F039F800F0CB
:1027540057F900F0A7F800F029F900F0FDF801227C
:1027640002211548FFF742FB00211448FDF740FF02
:1027740001237B6009E0114B1B687A685A630A20C5
:10278400FFF7F6FC7B680A337B607B68B3F57A7FDE
:10279400F1DB40F2E7333B6009E0084B1B683A6821
:1027A4005A630A20FFF7E4FC3B680A3B3B603B6842
:1027B400002BF2DCDCE700BF000802402C00002004
:1027C40080B594B000AF07F11C03342200211846F1
:1027D40000F003FB07F1080300221A605A609A60B4
:1027E400DA601A6100237B602C4B1B6C2B4A43F08C
:1027F40080531364294B1B6C03F080537B607B680C
:1028040000233B60264B1B68254A43F44043136076
:10281400234B1B6803F440433B603B680223FB618A
:102824000123BB621023FB6202237B630023BB638F
:102834000823FB63B4233B6402237B640223BB644D
:102844000223FB6407F11C031846FEF79DFE0346B2
:10285400002B01D000F062F9FFF7E2FA0346002BE7
:1028640001D000F05BF90F23BB600223FB6000235F
:102874003B614FF4A0537B614FF48053BB6107F17C
:10288400080305211846FEF735FB0346002B01D04B
:1028940000F044F900BF5037BD4680BD0038024007
:1028A4000070004080B58AB000AF07F12003002219
:1028B4001A605A603B1D00221A605A609A60DA60FE
:1028C4001A615A619A61224B224A1A60204B0822EB
:1028D4005A601F4B00229A601D4B40F2E732DA60C7
:1028E4001B4B00221A611A4B00229A611848FDF70B
:1028F4002FFE0346002B01D000F010F900233B62A9
:1029040000237B6207F1200319461148FEF776FA8B
:102914000346002B01D000F001F960237B60002303
:10292400BB600023FB6000237B613B1D0022194632
:102934000748FDF725FF0346002B01D000F0EEF811
:10294400034800F06BF900BF2837BD4680BD00BFC7
:102954002C0000200004004080B500AF114B124A47
:102964001A60104B4FF4E1325A600E4B00229A6009
:102974000C4B0022DA600B4B00221A61094B0C222B
:102984005A61084B00229A61064B0022DA6105481D
:10299400FFF712FC0346002B01D000F0BFF800BF84
:1029A40080BD00BF740000200010014080B500AF5E
:1029B400114B124A1A60104B4FF416525A600E4BC8
:1029C40000229A600C4B0022DA600B4B00221A6141
:1029D400094B0C225A61084B00229A61064B0022D3
:1029E400DA610548FFF7E8FB0346002B01D000F04D
:1029F40095F800BF80BD00BFBC000020004400402B
:102A040080B58AB000AF07F1140300221A605A603F
:102A14009A60DA601A6100233B613D4B1B6B3C4AB0
:102A240043F0040313633A4B1B6B03F004033B6151
:102A34003B690023FB60364B1B6B354A43F0800334
:102A44001363334B1B6B03F08003FB60FB680023B1
:102A5400BB602F4B1B6B2E4A43F0010313632C4BBB
:102A64001B6B03F00103BB60BB6800237B60284B36
:102A74001B6B274A43F002031363254B1B6B03F0C4
:102A840002037B607B68002202212248FFF7AEF933
:102A9400002220212048FFF7A9F94FF400537B615D
:102AA4004FF40413BB610023FB6107F114031946BF
:102AB4001848FFF707F802237B610123BB61002359
:102AC400FB6100233B6207F1140319461148FEF72A
:102AD400F9FF20237B610123BB610023FB610023F9
:102AE4003B6207F1140319460B48FEF7EBFF4FF462
:102AF40000737B610023BB610023FB6107F11403B6
:102B040019460448FEF7DEFF00BF2837BD4680BDE6
:102B140000380240000802400000024080B400AFC8
:102B240072B600BF00BFFDE780B400AF00BFFDE791
:102B340080B400AF00BFFDE780B400AF00BFFDE785
:102B440080B400AF00BFFDE780B400AF00BFFDE775
:102B540080B400AF00BFBD465DF8047B704780B40D
:102B640000AF00BFBD465DF8047B704780B400AF82
:102B740000BFBD465DF8047B704780B500AFFFF72A
:102B8400D7FA00BF80BD000080B582B000AF00233B
:102B94007B60104B5B6C0F4A43F4804353640D4BD2
:102BA4005B6C03F480437B607B6800233B60094BD0
:102BB4001B6C084A43F080531364064B1B6C03F0F0
:102BC40080533B603B680720FFF72CFA00BF0837AF
:102BD400BD4680BD0038024080B485B000AF786047
:102BE4007B681B680B4A93420DD10023FB600A4BA0
:102BF4001B6C094A43F002031364074B1B6C03F07C
:102C04000203FB60FB6800BF1437BD465DF8047B1C
:102C1400704700BF000400400038024080B588B00F
:102C240000AF786007F10C0300221A605A609A60C2
:102C3400DA601A617B681B68124A93421DD1002333
:102C4400BB60114B1B6B104A43F0020313630E4B22
:102C54001B6B03F00203BB60BB681023FB60022301
:102C64003B6100237B610023BB610223FB6107F10D
:102C74000C0319460548FEF725FF00BF2037BD4663
:102C840080BD00BF00040040003802400004024040
:102C940080B58CB000AF786007F11C0300221A6085
:102CA4005A609A60DA601A617B681B68324A934200
:102CB4002DD10023BB61314B5B6C304A43F01003D0
:102CC40053642E4B5B6C03F01003BB61BB690023A0
:102CD4007B612A4B1B6B294A43F001031363274B87
:102CE4001B6B03F001037B617B694FF4C063FB61E1
:102CF40002233B6200237B620323BB620723FB6244
:102D040007F11C0319461E48FEF7DCFE30E07B6821
:102D14001B681C4A93422BD100233B61174B1B6C4D
:102D2400164A43F400331364144B1B6C03F400334E
:102D34003B613B690023FB60104B1B6B0F4A43F064
:102D4400010313630D4B1B6B03F00103FB60FB6872
:102D54000C23FB6102233B6200237B620323BB62DF
:102D64000723FB6207F11C0319460548FEF7AAFE78
:102D740000BF3037BD4680BD00100140003802401E
:102D84000000024000440040DFF834D0FDF7CEFBE1
:102D94000C480D490D4A002302E0D458C4500433B2
:102DA400C4188C42F9D30A4A0A4C002301E0136088
:102DB4000432A242FBD300F019F8FFF7C1FC7047BC
:102DC40000000220000000200C000020782E0008E3
:102DD4000C00002004010020FEE702440346934255
:102DE40000D1704703F8011BF9E7000070B50D4BE3
:102DF4000D4D5B1B9C100026A64209D100F01AF869
:102E04000A4D0B4B5B1B9C100026A64205D170BDDE
:102E140055F8043B98470136EEE755F8043B9847CC
:102E24000136F2E7702E0008702E0008702E00089C
:102E3400742E0008F8B500BFF8BC08BC9E46704765
:0C2E4400F8B500BFF8BC08BC9E46704703
:102E5000000000000000000001020304060708094A
:082E6000000000000102030460
:082E6800CCD3FF7F0100000044
:042E7000E90100086C
:042E7400C50100088C
:0C2E78000024F400100000000100000025
:0400000508002D8D35
:00000001FF
